{
  "_format": "hh-sol-artifact-1",
  "contractName": "BuyLifeContract",
  "sourceName": "contracts/BuyLifeContract.sol",
  "abi": [
    {
      "inputs": [
        {
          "internalType": "uint256",
          "name": "_lifePrice",
          "type": "uint256"
        },
        {
          "internalType": "address",
          "name": "_delegate",
          "type": "address"
        }
      ],
      "stateMutability": "nonpayable",
      "type": "constructor"
    },
    {
      "inputs": [
        {
          "internalType": "address",
          "name": "owner",
          "type": "address"
        }
      ],
      "name": "OwnableInvalidOwner",
      "type": "error"
    },
    {
      "inputs": [
        {
          "internalType": "address",
          "name": "account",
          "type": "address"
        }
      ],
      "name": "OwnableUnauthorizedAccount",
      "type": "error"
    },
    {
      "inputs": [],
      "name": "ReentrancyGuardReentrantCall",
      "type": "error"
    },
    {
      "anonymous": false,
      "inputs": [
        {
          "indexed": true,
          "internalType": "address",
          "name": "owner",
          "type": "address"
        },
        {
          "indexed": false,
          "internalType": "uint256",
          "name": "amount",
          "type": "uint256"
        }
      ],
      "name": "FundsWithdrawn",
      "type": "event"
    },
    {
      "anonymous": false,
      "inputs": [
        {
          "indexed": true,
          "internalType": "address",
          "name": "buyer",
          "type": "address"
        },
        {
          "indexed": false,
          "internalType": "uint256",
          "name": "amount",
          "type": "uint256"
        }
      ],
      "name": "LifePurchased",
      "type": "event"
    },
    {
      "anonymous": false,
      "inputs": [
        {
          "indexed": true,
          "internalType": "address",
          "name": "previousOwner",
          "type": "address"
        },
        {
          "indexed": true,
          "internalType": "address",
          "name": "newOwner",
          "type": "address"
        }
      ],
      "name": "OwnershipTransferred",
      "type": "event"
    },
    {
      "stateMutability": "payable",
      "type": "fallback"
    },
    {
      "inputs": [
        {
          "internalType": "uint256",
          "name": "_amount",
          "type": "uint256"
        }
      ],
      "name": "buyLife",
      "outputs": [
        {
          "internalType": "bool",
          "name": "",
          "type": "bool"
        }
      ],
      "stateMutability": "payable",
      "type": "function"
    },
    {
      "inputs": [],
      "name": "lifePrice",
      "outputs": [
        {
          "internalType": "uint256",
          "name": "",
          "type": "uint256"
        }
      ],
      "stateMutability": "view",
      "type": "function"
    },
    {
      "inputs": [],
      "name": "owner",
      "outputs": [
        {
          "internalType": "address",
          "name": "",
          "type": "address"
        }
      ],
      "stateMutability": "view",
      "type": "function"
    },
    {
      "inputs": [],
      "name": "renounceOwnership",
      "outputs": [],
      "stateMutability": "nonpayable",
      "type": "function"
    },
    {
      "inputs": [
        {
          "internalType": "uint256",
          "name": "_lifePrice",
          "type": "uint256"
        }
      ],
      "name": "setLifePrice",
      "outputs": [],
      "stateMutability": "nonpayable",
      "type": "function"
    },
    {
      "inputs": [
        {
          "internalType": "address",
          "name": "newOwner",
          "type": "address"
        }
      ],
      "name": "transferOwnership",
      "outputs": [],
      "stateMutability": "nonpayable",
      "type": "function"
    },
    {
      "inputs": [],
      "name": "withdraw",
      "outputs": [],
      "stateMutability": "nonpayable",
      "type": "function"
    },
    {
      "stateMutability": "payable",
      "type": "receive"
    }
  ],
  "bytecode": "0x608060405234801561001057600080fd5b5060405161077d38038061077d83398101604081905261002f9161011f565b806001600160a01b03811661005f57604051631e4fbdf760e01b8152600060048201526024015b60405180910390fd5b610068816100cf565b5060018055816100c65760405162461bcd60e51b8152602060048201526024808201527f4c696665207072696365206d7573742062652067726561746572207468616e206044820152637a65726f60e01b6064820152608401610056565b5060025561015c565b600080546001600160a01b038381166001600160a01b0319831681178455604051919092169283917f8be0079c531659141344cd1fd0a4f28419497f9722a3daafe3b4186f6b6457e09190a35050565b6000806040838503121561013257600080fd5b825160208401519092506001600160a01b038116811461015157600080fd5b809150509250929050565b6106128061016b6000396000f3fe6080604052600436106100745760003560e01c80636c6623fe1161004e5780636c6623fe1461016e578063715018a6146101915780638da5cb5b146101a6578063f2fde38b146101ce576100c6565b80633ccfd60b1461010e5780633fcc845414610125578063697e5c0a1461014e576100c6565b366100c65760405162461bcd60e51b815260206004820152601f60248201527f446972656374206465706f7369747320617265206e6f7420616c6c6f7765640060448201526064015b60405180910390fd5b60405162461bcd60e51b815260206004820152601860248201527f46616c6c6261636b2066756e6374696f6e2063616c6c6564000000000000000060448201526064016100bd565b34801561011a57600080fd5b506101236101ee565b005b34801561013157600080fd5b5061013b60025481565b6040519081526020015b60405180910390f35b34801561015a57600080fd5b5061012361016936600461054f565b610339565b61018161017c36600461054f565b610346565b6040519015158152602001610145565b34801561019d57600080fd5b506101236103f3565b3480156101b257600080fd5b506000546040516001600160a01b039091168152602001610145565b3480156101da57600080fd5b506101236101e9366004610568565b610407565b6101f661045e565b47806102445760405162461bcd60e51b815260206004820152601460248201527f4e6f2066756e647320746f20776974686472617700000000000000000000000060448201526064016100bd565b600080546040516001600160a01b039091169083908381818185875af1925050503d8060008114610291576040519150601f19603f3d011682016040523d82523d6000602084013e610296565b606091505b50509050806102e75760405162461bcd60e51b815260206004820152601160248201527f5769746864726177616c206661696c656400000000000000000000000000000060448201526064016100bd565b6000546001600160a01b03166001600160a01b03167feaff4b37086828766ad3268786972c0cd24259d4c87a80f9d3963a3c3d999b0d8360405161032d91815260200190565b60405180910390a25050565b61034161045e565b600255565b60006103506104a4565b8160025461035e9190610598565b3410156103ad5760405162461bcd60e51b815260206004820152601e60248201527f496e73756666696369656e742045544820746f206275792061206c696665000060448201526064016100bd565b60405134815233907fd11db32d5da5323331fd003b3a9c46447d3d68b358d5c80985355c9f75f67f089060200160405180910390a25060016103ee60018055565b919050565b6103fb61045e565b61040560006104e7565b565b61040f61045e565b6001600160a01b038116610452576040517f1e4fbdf7000000000000000000000000000000000000000000000000000000008152600060048201526024016100bd565b61045b816104e7565b50565b6000546001600160a01b03163314610405576040517f118cdaa70000000000000000000000000000000000000000000000000000000081523360048201526024016100bd565b6002600154036104e0576040517f3ee5aeb500000000000000000000000000000000000000000000000000000000815260040160405180910390fd5b6002600155565b600080546001600160a01b038381167fffffffffffffffffffffffff0000000000000000000000000000000000000000831681178455604051919092169283917f8be0079c531659141344cd1fd0a4f28419497f9722a3daafe3b4186f6b6457e09190a35050565b60006020828403121561056157600080fd5b5035919050565b60006020828403121561057a57600080fd5b81356001600160a01b038116811461059157600080fd5b9392505050565b80820281158282048414176105d6577f4e487b7100000000000000000000000000000000000000000000000000000000600052601160045260246000fd5b9291505056fea26469706673582212200c8e681d744cda818c418449797e50380954c51d29765ae48e094e976bb0bd7b64736f6c634300081b0033",
  "linkReferences": {},
  "deployedLinkReferences": {}
}